{
  "contractName": "VendingMachine",
  "abi": [
    {
      "inputs": [],
      "stateMutability": "nonpayable",
      "type": "constructor"
    },
    {
      "inputs": [
        {
          "internalType": "address",
          "name": "",
          "type": "address"
        }
      ],
      "name": "donubalances",
      "outputs": [
        {
          "internalType": "uint256",
          "name": "",
          "type": "uint256"
        }
      ],
      "stateMutability": "view",
      "type": "function",
      "constant": true
    },
    {
      "inputs": [],
      "name": "owner",
      "outputs": [
        {
          "internalType": "address",
          "name": "",
          "type": "address"
        }
      ],
      "stateMutability": "view",
      "type": "function",
      "constant": true
    },
    {
      "inputs": [],
      "name": "getVendingMachineBalance",
      "outputs": [
        {
          "internalType": "uint256",
          "name": "",
          "type": "uint256"
        }
      ],
      "stateMutability": "view",
      "type": "function",
      "constant": true
    },
    {
      "inputs": [
        {
          "internalType": "uint256",
          "name": "amount",
          "type": "uint256"
        }
      ],
      "name": "restock",
      "outputs": [],
      "stateMutability": "nonpayable",
      "type": "function"
    },
    {
      "inputs": [
        {
          "internalType": "uint256",
          "name": "amount",
          "type": "uint256"
        }
      ],
      "name": "purchase",
      "outputs": [],
      "stateMutability": "payable",
      "type": "function",
      "payable": true
    }
  ],
  "bytecode": "0x608060405234801561001057600080fd5b50336000806101000a81548173ffffffffffffffffffffffffffffffffffffffff021916908373ffffffffffffffffffffffffffffffffffffffff1602179055506064600160003073ffffffffffffffffffffffffffffffffffffffff1673ffffffffffffffffffffffffffffffffffffffff16815260200190815260200160002081905550610835806100a56000396000f3fe60806040526004361061004a5760003560e01c80637566d9241461004f5780638da5cb5b1461008c578063c21a702a146100b7578063e7644d34146100e0578063efef39a11461010b575b600080fd5b34801561005b57600080fd5b506100766004803603810190610071919061047b565b610127565b60405161008391906104c1565b60405180910390f35b34801561009857600080fd5b506100a161013f565b6040516100ae91906104eb565b60405180910390f35b3480156100c357600080fd5b506100de60048036038101906100d99190610532565b610163565b005b3480156100ec57600080fd5b506100f561024a565b60405161010291906104c1565b60405180910390f35b61012560048036038101906101209190610532565b610291565b005b60016020528060005260406000206000915090505481565b60008054906101000a900473ffffffffffffffffffffffffffffffffffffffff1681565b60008054906101000a900473ffffffffffffffffffffffffffffffffffffffff1673ffffffffffffffffffffffffffffffffffffffff163373ffffffffffffffffffffffffffffffffffffffff16146101f1576040517f08c379a00000000000000000000000000000000000000000000000000000000081526004016101e8906105e2565b60405180910390fd5b80600160003073ffffffffffffffffffffffffffffffffffffffff1673ffffffffffffffffffffffffffffffffffffffff16815260200190815260200160002060008282546102409190610631565b9250508190555050565b6000600160003073ffffffffffffffffffffffffffffffffffffffff1673ffffffffffffffffffffffffffffffffffffffff16815260200190815260200160002054905090565b671bc16d674ec80000816102a59190610665565b3410156102e7576040517f08c379a00000000000000000000000000000000000000000000000000000000081526004016102de90610719565b60405180910390fd5b80600160003073ffffffffffffffffffffffffffffffffffffffff1673ffffffffffffffffffffffffffffffffffffffff168152602001908152602001600020541015610369576040517f08c379a0000000000000000000000000000000000000000000000000000000008152600401610360906107ab565b60405180910390fd5b80600160003073ffffffffffffffffffffffffffffffffffffffff1673ffffffffffffffffffffffffffffffffffffffff16815260200190815260200160002060008282546103b891906107cb565b9250508190555080600160003373ffffffffffffffffffffffffffffffffffffffff1673ffffffffffffffffffffffffffffffffffffffff168152602001908152602001600020600082825461040e9190610631565b9250508190555050565b600080fd5b600073ffffffffffffffffffffffffffffffffffffffff82169050919050565b60006104488261041d565b9050919050565b6104588161043d565b811461046357600080fd5b50565b6000813590506104758161044f565b92915050565b60006020828403121561049157610490610418565b5b600061049f84828501610466565b91505092915050565b6000819050919050565b6104bb816104a8565b82525050565b60006020820190506104d660008301846104b2565b92915050565b6104e58161043d565b82525050565b600060208201905061050060008301846104dc565b92915050565b61050f816104a8565b811461051a57600080fd5b50565b60008135905061052c81610506565b92915050565b60006020828403121561054857610547610418565b5b60006105568482850161051d565b91505092915050565b600082825260208201905092915050565b7f4f6e6c7920746865206f776e657220726573746f636b2074686973206d61636860008201527f696e652e00000000000000000000000000000000000000000000000000000000602082015250565b60006105cc60248361055f565b91506105d782610570565b604082019050919050565b600060208201905081810360008301526105fb816105bf565b9050919050565b7f4e487b7100000000000000000000000000000000000000000000000000000000600052601160045260246000fd5b600061063c826104a8565b9150610647836104a8565b925082820190508082111561065f5761065e610602565b5b92915050565b6000610670826104a8565b915061067b836104a8565b9250828202610689816104a8565b915082820484148315176106a05761069f610602565b5b5092915050565b7f596f75206d75737420706179206174206c65617374203220657468657220706560008201527f7220646f6e75742e000000000000000000000000000000000000000000000000602082015250565b600061070360288361055f565b915061070e826106a7565b604082019050919050565b60006020820190508181036000830152610732816106f6565b9050919050565b7f4e6f7420656e6f75676820646f6e75747320696e2073746f636b20746f20667560008201527f6c66696c6c20707572636861736520726571756573742e000000000000000000602082015250565b600061079560378361055f565b91506107a082610739565b604082019050919050565b600060208201905081810360008301526107c481610788565b9050919050565b60006107d6826104a8565b91506107e1836104a8565b92508282039050818111156107f9576107f8610602565b5b9291505056fea26469706673582212206818b4202a9937ec90611258e1b32a98dbea1ec2590b9355a91909471fe1cc3464736f6c63430008110033",
  "immutableReferences": {},
  "source": "// SPDX-License-Identifier: MIT\npragma solidity ^0.8.17;\n\ncontract VendingMachine {\n    address public owner;\n    mapping(address => uint) public donubalances;\n\n    constructor() {\n        owner = msg.sender;\n        donubalances[address(this)] = 100;\n    }\n\n    function getVendingMachineBalance() public view returns (uint) {\n        return donubalances[address(this)];\n    }\n\n    function restock(uint amount) public {\n        require(msg.sender == owner, \"Only the owner restock this machine.\");\n        donubalances[address(this)] += amount;\n    }\n\n    function purchase(uint amount) public payable {\n        require(\n            msg.value >= amount * 2 ether,\n            \"You must pay at least 2 ether per donut.\"\n        );\n        require(\n            donubalances[address(this)] >= amount,\n            \"Not enough donuts in stock to fulfill purchase request.\"\n        );\n        donubalances[address(this)] -= amount;\n        donubalances[msg.sender] += amount;\n    }\n}\n",
  "sourcePath": "/Users/akashk/Applications/BlockChain/vending-machine/contract/contracts/VendingMachine.sol",
  "compiler": {
    "name": "solc",
    "version": "0.8.17+commit.8df45f5f.Emscripten.clang"
  },
  "schemaVersion": "3.4.11",
  "updatedAt": "2023-01-27T19:17:13.426Z",
  "networkType": "ethereum",
  "devdoc": {
    "kind": "dev",
    "methods": {},
    "version": 1
  },
  "userdoc": {
    "kind": "user",
    "methods": {},
    "version": 1
  }
}